:040000000DEF00F010
:04000800A3EF03F06F
:06001800FF0083EF04F07D
:1004000000434F4D4D414E44204552524F520A0039
:100410005541525420474F4F440A004C420A005263
:10042000420A004C460A0052460A00004FEC03F014
:10043000000E1A6E000E196E000E186ED29AAEECF7
:1004400004F06AEC04F0D28E8DEF02F01A50D8B4AA
:100450002CEF02F02EEF02F08DEF02F0A60E026EEE
:10046000000E036E2EEC04F0A60E0001E86F000EE5
:10047000E96FE8C003F0E9C004F0F3EC03F00A0E02
:10048000BEEC04F06000A3F3D9FF6000A7F3DAFF2D
:10049000490EDE18D8A44FEF02F051EF02F08BEFB7
:1004A00002F0000120EE01F0E851D926E951DA22EC
:1004B0006E0EDE18D8A45FEF02F061EF02F08BEF52
:1004C00002F020EE02F0E851D926E951DA22690E55
:1004D000DE18D8A46EEF02F070EF02F08BEF02F09E
:1004E00020EE03F0E851D926E951DA22740EDE1825
:1004F000D8A47DEF02F07FEF02F08BEF02F0010E47
:10050000186E100EE66F040EE76FE6C003F0E7C04A
:1005100004F0F3EC03F0000E1A6E1850D8B493EF09
:1005200002F095EF02F026EF02F0390194851A509F
:10053000D8B49DEF02F09FEF02F0BBEF02F0A60EE1
:10054000026E000E036E2EEC04F0A60E0001E86FA2
:10055000000EE96FE8C003F0E9C004F0F3EC03F02B
:100560000A0EBEEC04F0E8C007F0E9C008F0CFECDA
:1005700002F0000E1A6E1950D8B4C1EF02F0C3EFAA
:1005800002F097EF02F0660EBEEC04F00A0EBEEC2D
:1005900004F0000E196E97EF02F00DEF00F0010E5F
:1005A0000A6E040E0B6E07C014F008C015F0600050
:1005B00053F0D9FF600057F0DAFFDF50096EC00E2C
:1005C0000916D8A4E6EF02F0E8EF02F0F4EF02F02B
:1005D000230E0C6E040E0D6E0CC003F00DC004F063
:1005E000F3EC03F04EEF03F0600053F0D9FF60002E
:1005F00057F0DAFFDF50C00B400AD8A402EF03F037
:1006000004EF03F010EF03F01B0E0E6E040E0F6EDE
:100610000EC003F00FC004F0F3EC03F04EEF03F054
:10062000600053F0D9FF600057F0DAFFDF50C00BD5
:10063000800AD8A41EEF03F020EF03F02CEF03F0A4
:10064000270E106E040E116E10C003F011C004F0DE
:10065000F3EC03F04EEF03F0600053F0D9FF6000BD
:1006600057F0DAFFDF50C00BC00AD8A43AEF03F00E
:100670003CEF03F048EF03F01F0E126E040E136EF2
:1006800012C003F013C004F0F3EC03F04EEF03F0DC
:100690000AC003F00BC004F0F3EC03F01200600E8C
:1006A0003901D96F000EDB6F000EDD6F020EDF6FB8
:1006B000000EDE6FE40EC26EC368BF0EC46E7F0E06
:1006C0003A01606F5069DB0E406F44695469646998
:1006D000080E846F100E046F0F0E036F0E0E016F65
:1006E0000D0E006F800E6E6E000E6D6E000E6C6E45
:1006F0003F015F51FC0B01095F6F800E6A6E000EB7
:10070000696E000E686E5F51F30B04095F6F800E17
:10071000666E000E656E000E646E5F51CF0B1009A1
:100720005F6F800E626E000E616E000E606E5F5134
:100730003F0B40095F6F020E3A01C06F050EC16F9B
:10074000D280D2821200D29E390193A7AAEF03F081
:10075000ACEF03F0B7EF03F0A3A7B1EF03F0B3EFF3
:1007600003F0B7EF03F04EEC04F0F1EF03F091A1CA
:10077000BCEF03F0BEEF03F0C9EF03F0A1A1C3EF9C
:1007800003F0C5EF03F0C9EF03F01B2AA181F1EFDD
:1007900003F095A1CEEF03F0D0EF03F0DDEF03F00F
:1007A000A5A1D5EF03F0D7EF03F0DDEF03F00001D3
:1007B000A52B3901A581F1EF03F094A5E2EF03F039
:1007C000E4EF03F0F1EF03F0A4A5E9EF03F0EBEFA2
:1007D00003F0F1EF03F099EC04F03901A495F1EF87
:1007E00003F0D28E110003C005F004C006F011EF33
:1007F00004F0600017F0F6FF60001BF0F7FFF86AE6
:10080000030EF76403D00800F55007D06F00DBFF3C
:10081000E9FF6F00DFFFEAFFEF50BEEC04F0054A8E
:10082000062A600017F0F6FF60001BF0F7FFF86A79
:10083000030EF76403D00800F55007D06F00DBFF0C
:10084000E9FF6F00DFFFEAFFEF500A0AD8A42BEFA1
:1008500004F02DEF04F0F9EF03F01200000E046E27
:10086000600E0424D96EDA6A000EDA2204500224E3
:10087000E16E000E0320E26E6F007FFFE7FF042AA7
:100880001F0E046446EF04F048EF04F030EF04F06C
:10089000000E0001A26F000E176E1200600E1724EA
:1008A000D96EDA6A000EDA226F00A3F7DFFF600E5E
:1008B0001724D96EDA6A000EDA220A0EDE18D8A4DE
:1008C00064EF04F066EF04F068EF04F0010E1A6EB6
:1008D000172A120039019397130E3A01166F170E5B
:1008E000E56FB00E3D01F26F800EF36F670EF56F8E
:1008F000000E0001A26F000E1A6E390193873D01B0
:10090000F289F28B120000EE60F0460EEE6AE80605
:10091000FDE11B6A1A6A196A186A176A080ED56E11
:10092000000ED66E000ED76E000EF86E000116EFA8
:1009300002F00001A04BA12BE80EA05D030EA1590F
:10094000D8A0A5EF04F0A7EF04F0ADEF04F0000E7F
:10095000A16F000EA06F010E196E1200010EAE6E97
:10096000000EAD6E000EAF6EF90EAB6E000EAA6EED
:100970003901A4959485A00EAC6E1200026E390167
:10098000A3A9C5EF04F0C7EF04F0BFEF04F06000C7
:060990000BF0EAFD12006D
:020000040020DA
:10000000FF0FFF0FFF0FFF0FFF0FFF0FFF0FFF0F80
:020000040030CA
:0A0000008CFFF7FF9FFFFFDFFFFFFB
:00000001FF
